:020000020000FC
:020000001AC024
:1000340029C1239A2B98249A2C98259A2D98219A91
:100044003A9A3B9A429A439AF5E084E372E08093A9
:100054000001709301018EE172E0809300027093BD
:10006400010291E00CE906BD03E005BD789401E0CE
:1000740000936F0009EF0093850005EE0093840060
:1000840005E00093810000C005D1A7D030D0FCCF9B
:10009400D1E0C0E0FF93FF0FF250CF0FFF91EF2F9D
:1000A400E13031F07A917F938A918F93EA95F8CF7A
:1000B400913039F0983039F0923049F0943029F089
:1000C40008C055D006C047D004C027D002C034D0E1
:1000D40000C0D1E0C0E0EF2FE13031F08993799393
:1000E4008F917F91EA95F8CF899378830895B1E051
:1000F400A0E05F2F503049F05F936D9144D06D9133
:100104004DD060D05F915A95F5CF609100023BD0FD
:100114006091010243D056D00895703009F009C0AF
:1001240088320AF003C076E0885D05C076E0885224
:1001340002C07A9500C00895763009F009C088326B
:100144000AF003C070E0885D05C070E0885202C008
:10015400739500C00895803019F0883219F004C0F6
:1001640087E204C08FE402C08A9500C008958732F4
:1001740019F08F3419F004C080E0F8CF88E2F6CF8C
:10018400839500C008955FE4651729F013D05030BB
:1001940021F05A95F9CF12D0FACF089556E00AD03B
:1001A400651729F007D0503021F05A95F9CF06D0C1
:1001B400FACF08952B982D9A2D9808952B9A2D9A5D
:1001C4002D9808952C9A02D02C98089505B300FB1D
:1001D400EEF705BB0CE906BD0895442704D006D00C
:1001E40036D038C0089505D00ED0089507D014D065
:1001F400089510EF1AB91FE01BB908951FE01AB94A
:100204001FE01BB9089509B01FE0101909F002C0DE
:1002140020E008950AD0089509B010EF101909F0EC
:1002240002C030E008950AD00895489B21E0499B1C
:1002340022E04A9B24E04B9B28E008954C9930E14E
:100244004D9930E24E9930E44F9930E80895420FC9
:10025400430F0895403041F0443141F0423249F0B7
:10026400423151F0413159F0BDCF439A98E043985F
:10027400B9CF94E04398B6CF92E04398B3CF91E0DE
:100284004398B0CF05DF09EF0093850005EE009396
:100294008400189502D019D00895D1E0C1E0C39527
:1002A400EF2F80910001E13079F07991871719F0EF
:1002B400C395EA95F6CF809101017991871711F0E2
:1002C400EA95EFCF90E000C008958091000170910D
:1002D4000002871709F012C0809101017091010298
:1002E400871709F00BC0809100027091010207D0BA
:1002F4008093000270930102F39500C008958A95DB
:0203040008955A
:00000001FF
