:020000020000FC
:020000003FC1FE
:100034003FC101D008955E9A5D985F9A5C9A000072
:10004400499B13C05C985D9A5E9A5F9A0000489B36
:1000540012C0499B0DC04A9B05C04B9B0FC008951D
:10006400E9CF439A58E04398E5CF54E04398E2CF70
:1000740052E04398DFCF51E04398DCCF20918400D5
:10008400D8D02093000220918500D8D0209301027B
:1000940051E0D0CFD1E0C0E07F93770F7250C70F0B
:1000A4007F91672F613031F03A913F934A914F939A
:1000B4006A95F8CF513039F0583039F0523049F060
:1000C400543029F008C03FD006C031D004C011D04C
:1000D40002C01ED000C0D1E0C0E0672F613031F013
:1000E400499339934F913F916A95F8CF4993388357
:1000F4000895303009F009C048320AF003C036E0F0
:10010400485D05C036E0485202C03A9500C00895E3
:10011400363009F009C048320AF003C030E0485DC7
:1001240005C030E0485202C0339500C00895403005
:1001340019F0483219F004C047E204C04FE402C089
:100144004A9500C00895473219F04F3419F004C09D
:1001540040E0F8CF48E2F6CF439500C00895B1E0FF
:10016400A0E0172F103049F01F934D910ED03D9110
:1001740017D02AD01F911A95F5CF4091000205D0CF
:10018400309101020DD020D008951FE4411729F0C9
:1001940013D0103021F01A95F9CF12D0FACF089568
:1001A40016E00AD0311729F007D0103021F01A9543
:1001B400F9CF06D0FACF08952B982D9A2D9808954B
:1001C4002B9A2D9A2D9808952C9A02D02C98089544
:1001D400A89AA89BFECF089502D019D00895D1E023
:1001E400C1E0C395672F40910001613079F03991E6
:1001F400431719F0C3956A95F6CF409101013991DF
:10020400431711F06A95EFCF50E000C00895409174
:10021400000130910002431709F00AC04091010126
:1002240030910102431709F003C00DD0739500C04B
:100234000895203510F02055FCCF0895273010F094
:100244002750FCCF089540910002309102024F9351
:10025400430F242F4F91EDDF2093000240930202BD
:1002640030910102409103023F93340F232F3F91B9
:10027400E5DF2093010230930302089526D020D0B5
:100284002BD030D003E806BD03E005BD789401E02F
:1002940000936F0009EF0093850006EE009384003D
:1002A40005E00093810000C097DFC3DE58DFFCCF78
:1002B400F1DE09EF0093850006EE009384001895A3
:1002C40000EF0AB90FE00BB90895239A2B98249AEA
:1002D4002C98259A2D980895219A3A9A3B9A429AF5
:1002E400439A089575E044E332E04093000130936B
:1002F40001014EE132E0409302023093030250E0E8
:0203040008955A
:00000001FF
