:020000020000FC
:0200000088C2B4
:100034008DC25E9A5D985F9A5C9A0000499B13C0DA
:100044004B9B1AC05C985D9A5E9A5F9A0000489B2D
:1000540010C0499B0BC04A9B03C04B9B0EC0089524
:1000640058E04398FCCF54E04398F9CF52E04398CA
:10007400F6CF51E04398F3CFF2CF2091840022D2FF
:10008400209300022091850022D22093010278D28D
:10009400E6CFD1E0C0E07F93770F7250C70F7F9116
:1000A400672F613031F03A913F934A914F936A95AB
:1000B400F8CF513039F0583039F0523049F05430DB
:1000C40029F008C03FD006C031D004C011D002C00E
:1000D4001ED000C0D1E0C0E0672F613031F04993F9
:1000E40039934F913F916A95F8CF49933883089596
:1000F400303009F009C048320AF003C036E0485DE8
:1001040005C036E0485202C03A9500C00895363022
:1001140009F009C048320AF003C030E0485D05C068
:1001240030E0485202C0339500C00895403019F0C1
:10013400483219F004C047E204C04FE402C04A95B3
:1001440000C00895473219F04F3419F004C040E05C
:10015400F8CF48E2F6CF439500C00895B1E0A0E09F
:10016400172F103049F01F934D910ED03D9117D0A9
:100174002AD01F911A95F5CF4091000205D03091F5
:1001840001020DD020D008951FE4411729F013D0A7
:10019400103021F01A95F9CF12D0FACF089516E055
:1001A4000AD0311729F007D0103021F01A95F9CF71
:1001B40006D0FACF08952B982D9A2D9808952B9A4E
:1001C4002D9A2D9808952C9A02D02C980895A89AC7
:1001D400A89BFECF0895089590E02CD190E02AD1F9
:1001E4009EE128D19FE126D191E124D19EE022D144
:1001F40090E020D190E01ED190E01CD190E01AD183
:100204009FE118D191E116D19EE014D19FE112D162
:1002140090E010D190E00ED1CED0D5DF90E00AD19D
:1002240090E008D191E106D190E104D191E102D1AD
:1002340091E100D190E0FED090E0FCD090E0FAD0C3
:1002440090E0F8D090E1F6D09BE1F4D091E1F2D0C7
:1002540090E1F0D090E0EED090E0ECD0B5D0B3DFF8
:1002640090E0E8D090E0E6D091E1E4D090E1E2D0F3
:1002740091E1E0D091E1DED090E0DCD090E0DAD002
:1002840090E0D8D090E0D6D090E1D4D095E1D2D00F
:1002940091E1D0D090E1CED090E0CCD090E0CAD023
:1002A4009CD091DF90E0C6D090E0C4D09EE1C2D053
:1002B4009FE1C0D091E1BED091E1BCD090E0BAD032
:1002C40090E0B8D090E0B6D090E0B4D09FE1B2D046
:1002D40091E1B0D09FE1AED093E1ACD090E0AAD050
:1002E40090E0A8D083D06FDF90E0A4D090E0A2D0BB
:1002F40094E1A0D090E19ED091E19CD091E19AD07C
:1003040090E098D090E096D090E094D090E092D095
:1003140090E190D091E18ED091E18CD091E18AD09E
:1003240090E088D090E086D06AD04DDF90E082D013
:1003340090E080D092E17ED090E17CD09AE07AD0B7
:1003440091E178D090E076D090E074D090E072D0D3
:1003540090E070D090E16ED091E16CD091E16AD0E0
:1003640091E168D090E066D090E064D051D02BDF6A
:1003740090E060D090E05ED091E15CD09FE15AD0F3
:1003840094E058D09EE056D090E054D090E052D003
:1003940090E050D090E04ED09FE14CD091E14AD013
:1003A40091E148D09FE146D090E044D090E042D023
:1003B40038D009DF0895FFDEFEDEFDDEFCDEFBDE65
:1003C400FADEF9DEFCDE0895F6DEF5DEF4DEF3DEB9
:1003D400F2DEF1DEF4DEEFDE0895EDDEECDEEBDEE0
:1003E400EADEE9DEECDEE7DEE6DE0895E4DEE3DE07
:1003F400E2DEE1DEE4DEDFDEDEDEDDDE0895DBDE2E
:10040400DADED9DEDCDED7DED6DED5DED4DE089554
:10041400D2DED1DED4DECFDECEDECDDECCDECBDE70
:100424000895C9DECCDEC7DEC6DEC5DEC4DEC3DEAB
:10043400C2DE089590FF0EC0C2DE91FF0DC0BFDE84
:1004440092FF0CC0BCDE93FF0BC0B9DE94FF0AC060
:10045400B6DE0AC0B0DEF1CFAEDEF2CFACDEF3CF53
:10046400AADEF4CFA8DE00C0089502D019D0089502
:10047400D1E0C1E0C395672F40910001613079F06C
:100484003991431719F0C3956A95F6CF409101014C
:100494003991431711F06A95EFCF80E000C00895B9
:1004A4004091000130910002431709F00AC04091C5
:1004B400010130910102431709F003C00DD0739577
:1004C40000C00895203510F02055FCCF0895273042
:1004D40010F02750FCCF08954091000230910202A1
:1004E4004F93430F242F4F91EDDF2093000240934D
:1004F400020230910102409103023F93340F232FF3
:100504003F91E5DF209301023093030208952BD03D
:1005140025D030D035D003E806BD03E005BD78947E
:1005240001E000936F0009EF0093850006EE00934D
:10053400840005E00093810000C07BDD803019F069
:1005440094DF0CDEFACF48DEF8CFF7CFA2DD09EF57
:100554000093850006EE00938400189500EF0AB915
:100564000FE00BB90895239A2B98249A2C98259A76
:100574002D980895219A3A9A3B9A429A439A08955B
:1005840082E073E044E332E04093000130930101E0
:1005940043E332E0409302013093030142E332E04B
:1005A40040930401309305014EE132E0409302028E
:0805B4003093030251E00895A9
:00000001FF
