:020000020000FC
:020000001AC024
:100034001CC1239A2B98249A2C98259A2D98219A9E
:100044003A9A3B9A429A439A91E007EE06BD03E03E
:1000540005BD789401E000936F0003EF00938500E1
:100064000BEC0093840005E00093810000C0A8D04D
:100074002FD0FDCF709103017F93809102018F9364
:10008400709101017F93809100018F93913039F039
:10009400983039F0923049F0943029F008C058D0A3
:1000A40006C048D004C02AD002C036D000C0809315
:1000B4000001709301018F917F91809302017093ED
:1000C40003018F917F91809304017093050108953A
:1000D400609100014BD06091010153D066D06091D2
:1000E400020144D0609103014CD05FD060910401BF
:1000F4003DD06091050145D058D0089570304AF440
:1001040088320AF003C076E0889605C076E088520B
:1001140002C07A950EC0089576304AF088320AF00B
:1001240003C070E0889605C070E0885202C07395E1
:1001340000C00895883248F009F002C08FE407C077
:1001440080301AF401F087E202C08A9500C0089555
:1001540087324AF009F002C080E007C08F341AF0F9
:1001640001F088E202C0839500C008955FE465173A
:1001740029F013D0503021F05A95F9CF12D0FACF8C
:10018400089556E00AD0651729F007D0503021F0C1
:100194005A95F9CF06D0FACF08952B982D9A2D9819
:1001A40008952B9A2D9A2D9808952C9A02D02C9864
:1001B400089505B300FBEEF705BB07EE06BD0895F1
:1001C400442704D006D036D038C0089505D00ED0C8
:1001D400089507D014D0089510EF1AB91FE01BB981
:1001E40008951FE01AB91FE01BB9089509B01FE074
:1001F400101909F002C020E008950AD0089509B04A
:1002040010EF101909F002C030E008950AD00895E3
:10021400489B21E0499B22E04A9B24E04B9B28E039
:1002240008954C9930E14D9930E24E9930E44F995C
:1002340030E80895420F430F0895403041F04431AF
:1002440041F0423249F0423151F0413159F0BDCFD1
:10025400439A98E04398B9CF94E04398B6CF92E09C
:100264004398B3CF91E04398B0CF04DF03EF0093FA
:0A02740085000BEC00938400189540
:00000001FF
