:020000020000FC
:020000008FC0AF
:1000340046C15ED0089505D00ED0089507D014D0DF
:10004400089510EF1AB91FE01BB908951FE01AB9FB
:100054001FE01BB9089509B01FE0101909F002C090
:1000640020E008950AD0089509B010EF101909F09E
:1000740002C030E008950AD00895489B21E0499BCE
:1000840022E04A9B24E04B9B28E008954C9930E100
:100094004D9930E24E9930E44F9930E80895420F7B
:1000A400430F0895403051F0443151F0423259F039
:1000B400423161F0413169F0483171F0439ABACF6D
:1000C40098E04398B7CF94E04398B4CF92E0439834
:1000D400B1CF91E04398AECF6091840040D160935A
:1000E40000026091850040D16093010291E0A2CFAB
:1000F4005E9A5D985F9A5C9A0000499BE4CF5C9895
:100104005D9A5E9A5F9A0000489BE3CF499BDECFDD
:100114004A9BD6CF4B9BE0CFD1CF0895239A2B98FF
:10012400249A2C98259A2D98219A3A9A3B9A429A85
:10013400439AF5E084E372E0809300017093010137
:100144008EE172E0809302027093030290E003E870
:1001540006BD03E005BD789401E000936F0009EF4C
:100164000093850006EE0093840005E0009381006F
:1001740000C0ADD05EDF30D0FCCFD1E0C0E0FF9353
:10018400FF0FF250CF0FFF91EF2FE13031F07A9152
:100194007F938A918F93EA95F8CF913039F0983014
:1001A40039F0923049F0943029F008C055D006C097
:1001B40047D004C027D002C034D000C0D1E0C0E092
:1001C400EF2FE13031F0899379938F917F91EA9504
:1001D400F8CF899378830895B1E0A0E05F2F503081
:1001E40049F05F938D9144D07D914DD060D05F9163
:1001F4005A95F5CF809100023BD07091010243D013
:1002040056D00895703009F009C088320AF003C04E
:1002140076E0885D05C076E0885202C07A9500C019
:100224000895763009F009C088320AF003C070E0FE
:10023400885D05C070E0885202C0739500C00895BF
:10024400803019F0883219F004C087E204C08FE4CA
:1002540002C08A9500C00895873219F08F3419F0CE
:1002640004C080E0F8CF88E2F6CF839500C00895FB
:100274005FE4851729F013D0503021F05A95F9CF57
:1002840012D0FACF089556E00AD0751729F007D096
:10029400503021F05A95F9CF06D0FACF08952B9813
:1002A4002D9A2D9808952B9A2D9A2D9808952C9A6D
:1002B40002D02C980895A89AA89BFECF08955DDFDC
:1002C40009EF0093850006EE00938400189502D090
:1002D40019D00895D1E0C1E0C395EF2F80910001BA
:1002E400E13079F07991871719F0C395EA95F6CF43
:1002F400809101017991871711F0EA95EFCF90E091
:1003040000C008958091000170910002871709F0E0
:100314000AC08091010170910102871709F003C09E
:1003240003D0F39500C008958091000270910202F9
:100334008F93870F682F8F9112D060930002809360
:10034400020270910102809103027F93780F672F5C
:100354007F910AD06093010270930302089560357F
:1003640010F06055FCCF0895673010F06750FCCF53
:020374000895EA
:00000001FF
